{"abi":[{"type":"function","name":"claimCollateralBack","inputs":[{"name":"_loanId","type":"bytes32","internalType":"bytes32"}],"outputs":[],"stateMutability":"nonpayable"},{"type":"function","name":"getBlockTime","inputs":[],"outputs":[{"name":"","type":"uint256","internalType":"uint256"}],"stateMutability":"view"},{"type":"function","name":"getUSDPrice","inputs":[{"name":"_token","type":"address","internalType":"address"}],"outputs":[{"name":"","type":"int256","internalType":"int256"}],"stateMutability":"view"},{"type":"function","name":"lendLoan","inputs":[{"name":"_loanId","type":"bytes32","internalType":"bytes32"}],"outputs":[],"stateMutability":"nonpayable"},{"type":"function","name":"liquidate","inputs":[{"name":"_loanId","type":"bytes32","internalType":"bytes32"}],"outputs":[],"stateMutability":"nonpayable"},{"type":"function","name":"loans","inputs":[{"name":"","type":"bytes32","internalType":"bytes32"}],"outputs":[{"name":"involvers","type":"tuple","internalType":"struct IntTrustLend.Parties","components":[{"name":"lender","type":"address","internalType":"address"},{"name":"borrower","type":"address","internalType":"address"}]},{"name":"amounts","type":"tuple","internalType":"struct IntTrustLend.LoanAmounts","components":[{"name":"collateralToken","type":"address","internalType":"address"},{"name":"borrowedToken","type":"address","internalType":"address"},{"name":"collateralAmount","type":"uint256","internalType":"uint256"},{"name":"borrowedAmount","type":"uint256","internalType":"uint256"},{"name":"interest","type":"uint256","internalType":"uint256"},{"name":"loanPercentage","type":"uint256","internalType":"uint256"}]},{"name":"status","type":"tuple","internalType":"struct IntTrustLend.Status","components":[{"name":"isPaid","type":"bool","internalType":"bool"},{"name":"isLend","type":"bool","internalType":"bool"}]},{"name":"duration","type":"tuple","internalType":"struct IntTrustLend.Time","components":[{"name":"duration","type":"uint256","internalType":"uint256"},{"name":"end","type":"uint256","internalType":"uint256"},{"name":"start","type":"uint256","internalType":"uint256"}]},{"name":"loanId","type":"bytes32","internalType":"bytes32"}],"stateMutability":"view"},{"type":"function","name":"payLoan","inputs":[{"name":"_loanId","type":"bytes32","internalType":"bytes32"}],"outputs":[],"stateMutability":"nonpayable"},{"type":"function","name":"priceFeeds","inputs":[{"name":"token","type":"address","internalType":"address"}],"outputs":[{"name":"priceFeed","type":"address","internalType":"address"}],"stateMutability":"view"},{"type":"function","name":"requestLoan","inputs":[{"name":"_collateralAmount","type":"uint256","internalType":"uint256"},{"name":"percentage","type":"uint256","internalType":"uint256"},{"name":"_duration","type":"uint256","internalType":"uint256"},{"name":"collateral","type":"address","internalType":"address"},{"name":"borrowed","type":"address","internalType":"address"}],"outputs":[{"name":"","type":"bytes32","internalType":"bytes32"}],"stateMutability":"nonpayable"},{"type":"function","name":"setPriceFeed","inputs":[{"name":"token","type":"address","internalType":"address"},{"name":"pricefeed","type":"address","internalType":"address"},{"name":"decimal","type":"uint256","internalType":"uint256"}],"outputs":[],"stateMutability":"nonpayable"},{"type":"function","name":"tokendecimal","inputs":[{"name":"token","type":"address","internalType":"address"}],"outputs":[{"name":"decimals","type":"uint256","internalType":"uint256"}],"stateMutability":"view"},{"type":"event","name":"Claim","inputs":[{"name":"_borrower","type":"address","indexed":true,"internalType":"address"},{"name":"_loanId","type":"bytes32","indexed":true,"internalType":"bytes32"},{"name":"_collateralAmount","type":"uint256","indexed":false,"internalType":"uint256"}],"anonymous":false},{"type":"event","name":"LendLoan","inputs":[{"name":"led","type":"tuple","indexed":false,"internalType":"struct TrustLend.Lend","components":[{"name":"_borrower","type":"address","internalType":"address"},{"name":"_lender","type":"address","internalType":"address"},{"name":"_loanId","type":"bytes32","internalType":"bytes32"},{"name":"_collateralAmount","type":"uint256","internalType":"uint256"},{"name":"_borrowedAmount","type":"uint256","internalType":"uint256"},{"name":"_interest","type":"uint256","internalType":"uint256"},{"name":"_percentage","type":"uint256","internalType":"uint256"},{"name":"_endTime","type":"uint256","internalType":"uint256"},{"name":"_isPaid","type":"bool","internalType":"bool"},{"name":"_isLend","type":"bool","internalType":"bool"}]}],"anonymous":false},{"type":"event","name":"Liquidate","inputs":[{"name":"_liquidator","type":"address","indexed":true,"internalType":"address"},{"name":"_lender","type":"address","indexed":true,"internalType":"address"},{"name":"_loanId","type":"bytes32","indexed":true,"internalType":"bytes32"},{"name":"_borrower","type":"address","indexed":false,"internalType":"address"},{"name":"_collateralAmountAcquired","type":"uint256","indexed":false,"internalType":"uint256"},{"name":"_amountWithInterest","type":"uint256","indexed":false,"internalType":"uint256"},{"name":"_percentage","type":"uint256","indexed":false,"internalType":"uint256"}],"anonymous":false},{"type":"event","name":"Repay","inputs":[{"name":"_borrower","type":"address","indexed":true,"internalType":"address"},{"name":"_lender","type":"address","indexed":true,"internalType":"address"},{"name":"_loanId","type":"bytes32","indexed":true,"internalType":"bytes32"},{"name":"_borrowedToken","type":"address","indexed":false,"internalType":"address"},{"name":"_collateralToken","type":"address","indexed":false,"internalType":"address"},{"name":"_collateralAmount","type":"uint256","indexed":false,"internalType":"uint256"},{"name":"_interest","type":"uint256","indexed":false,"internalType":"uint256"}],"anonymous":false},{"type":"event","name":"RequestLoan","inputs":[{"name":"reg","type":"tuple","indexed":false,"internalType":"struct TrustLend.Request","components":[{"name":"_borrower","type":"address","internalType":"address"},{"name":"_loanId","type":"bytes32","internalType":"bytes32"},{"name":"_collateralAmount","type":"uint256","internalType":"uint256"},{"name":"_borrowedAmount","type":"uint256","internalType":"uint256"},{"name":"_interest","type":"uint256","internalType":"uint256"},{"name":"_percentage","type":"uint256","internalType":"uint256"},{"name":"_isPaid","type":"bool","internalType":"bool"},{"name":"_isLend","type":"bool","internalType":"bool"}]}],"anonymous":false}],"bytecode":{"object":"0x6080604052348015600f57600080fd5b5061189f8061001f6000396000f3fe608060405234801561001057600080fd5b50600436106100a95760003560e01c80638b2f0f4f116100715780638b2f0f4f146101225780639dcb511a14610135578063c4a9081514610176578063d808c91b146102f6578063db6e2a3f14610309578063eceb9a9c1461031c57600080fd5b80630a71096e146100ae5780630c7beed2146100c35780632c18a642146100d65780636b7beba0146100e957806387ceff091461011c575b600080fd5b6100c16100bc36600461145d565b61032f565b005b6100c16100d136600461145d565b6106b0565b6100c16100e436600461145d565b6108a3565b6101096100f7366004611492565b60026020526000908152604090205481565b6040519081526020015b60405180910390f35b42610109565b610109610130366004611492565b610b17565b61015e610143366004611492565b6001602052600090815260409020546001600160a01b031681565b6040516001600160a01b039091168152602001610113565b61025361018436600461145d565b600060208181529181526040908190208151808301835281546001600160a01b0390811682526001830154811682860152835160c081018552600284015482168152600384015490911681860152600483015481850152600583015460608083019190915260068401546080830152600784015460a083015284518086018652600885015460ff80821615158352610100909104161515818801528551918201865260098501548252600a85015496820196909652600b84015494810194909452600c90920154909391929085565b6040805186516001600160a01b03908116825260209788015181168883015286518116828401528787015116606080830191909152868301516080808401919091529087015160a0808401919091529087015160c08301529095015160e08601528351151561010086015292850151151561012085015281516101408501529381015161016084015201516101808201526101a08101919091526101c001610113565b6100c161030436600461145d565b610b88565b6101096103173660046114ad565b610e90565b6100c161032a3660046114fd565b61138b565b60008181526020819052604090206008810154610100900460ff1661036f5760405162461bcd60e51b81526004016103669061153a565b60405180910390fd5b600881015460ff16156103945760405162461bcd60e51b81526004016103669061155e565b600a81015442116103d65760405162461bcd60e51b815260206004820152600c60248201526b5374696c6c2041637469766560a01b6044820152606401610366565b80546001600160a01b03166104195760405162461bcd60e51b815260206004820152600960248201526827379024b9b9bab2b960b91b6044820152606401610366565b60058101546003820154600091610438916001600160a01b0316611426565b6006830154600384015491925060009161045b91906001600160a01b0316611426565b6004840154600285015491925060009161047e91906001600160a01b0316611426565b60038501549091506001600160a01b03166323b872dd33306104a08688611598565b6040518463ffffffff1660e01b81526004016104be939291906115ab565b6020604051808303816000875af11580156104dd573d6000803e3d6000fd5b505050506040513d601f19601f8201168201806040525081019061050191906115cf565b50600384015484546001600160a01b039182169163a9059cbb91166105268587611598565b6040516001600160e01b031960e085901b1681526001600160a01b03909216600483015260248201526044016020604051808303816000875af1158015610571573d6000803e3d6000fd5b505050506040513d601f19601f8201168201806040525081019061059591906115cf565b50600284015460405163a9059cbb60e01b8152336004820152602481018390526001600160a01b039091169063a9059cbb906044016020604051808303816000875af11580156105e9573d6000803e3d6000fd5b505050506040513d601f19601f8201168201806040525081019061060d91906115cf565b5060088401805460ff1916600190811790915584549085015460048601546006870154600588015489946001600160a01b039081169433947f1ba40d1f133a09e81480a7aed4e43e0decad15eeca0a3b801e8caeee4f4c7de69491909216926106769190611598565b60078b0154604080516001600160a01b03909516855260208501939093529183015260608201526080015b60405180910390a45050505050565b60008181526020819052604090206008810154610100900460ff166106e75760405162461bcd60e51b81526004016103669061153a565b600881015460ff161561070c5760405162461bcd60e51b81526004016103669061155e565b600a8101541561074d5760405162461bcd60e51b815260206004820152600c60248201526b5374696c6c2041637469766560a01b6044820152606401610366565b80546001600160a01b0316156107755760405162461bcd60e51b8152600401610366906115f8565b60018101546001600160a01b031633146107a15760405162461bcd60e51b8152600401610366906115f8565b600481015460028201546000916107c0916001600160a01b0316611426565b600283015460405163a9059cbb60e01b8152336004820152602481018390529192506001600160a01b03169063a9059cbb906044016020604051808303816000875af1158015610814573d6000803e3d6000fd5b505050506040513d601f19601f8201168201806040525081019061083891906115cf565b5060006004830181905560088301805460ff1916600190811790915583015460405185926001600160a01b03909216917f33e1e4350f7b57099d5489c172fc55e9e32d4d3906a6e36710fae5ed9f5eef0f9161089691815260200190565b60405180910390a3505050565b60008181526020819052604090206008810154610100900460ff166108da5760405162461bcd60e51b81526004016103669061153a565b600881015460ff16156108ff5760405162461bcd60e51b81526004016103669061155e565b60018101546001600160a01b0316331461092b5760405162461bcd60e51b8152600401610366906115f8565b6005810154600382015460009161094a916001600160a01b0316611426565b6006830154600384015491925060009161096d91906001600160a01b0316611426565b6004840154600285015491925060009161099091906001600160a01b0316611426565b600385015485549192506001600160a01b03908116916323b872dd913391166109b98688611598565b6040518463ffffffff1660e01b81526004016109d7939291906115ab565b6020604051808303816000875af11580156109f6573d6000803e3d6000fd5b505050506040513d601f19601f82011682018060405250810190610a1a91906115cf565b50600284015460405163a9059cbb60e01b8152336004820152602481018390526001600160a01b039091169063a9059cbb906044016020604051808303816000875af1158015610a6e573d6000803e3d6000fd5b505050506040513d601f19601f82011682018060405250810190610a9291906115cf565b5060088401805460ff191660019081179091558454908501546003860154600287015460048801546006890154604080516001600160a01b03958616815293851660208501528301919091526060820152889382169291909116907f1470e941fa4bbaafc2a2f026e53566e8e6dd113461d922a1f0432dd6da71773c906080016106a1565b600080826001600160a01b031663feaf968c6040518163ffffffff1660e01b815260040160a060405180830381865afa158015610b58573d6000803e3d6000fd5b505050506040513d601f19601f82011682018060405250810190610b7c9190611636565b50919695505050505050565b60008181526020819052604090206008810154610100900460ff1615610be35760405162461bcd60e51b815260206004820152601060248201526f105b1c9958591e481b195b9d081bdd5d60821b6044820152606401610366565b600881015460ff1615610c2b5760405162461bcd60e51b815260206004820152601060248201526f105b1c9958591e481c185a59081bdd5d60821b6044820152606401610366565b80546001600160a01b031615610c835760405162461bcd60e51b815260206004820152601960248201527f4c6f616e20616c7265616479206861732061206c656e646572000000000000006044820152606401610366565b80546001600160a01b0319163317815542600b82018190556009820154610ca991611598565b600a82015560088101805461ff00191661010017905560058101546003820154600091610cde916001600160a01b0316611426565b60038301546040516323b872dd60e01b81529192506001600160a01b0316906323b872dd90610d15903390309086906004016115ab565b6020604051808303816000875af1158015610d34573d6000803e3d6000fd5b505050506040513d601f19601f82011682018060405250810190610d5891906115cf565b506003820154600183015460405163a9059cbb60e01b81526001600160a01b0391821660048201526024810184905291169063a9059cbb906044016020604051808303816000875af1158015610db2573d6000803e3d6000fd5b505050506040513d601f19601f82011682018060405250810190610dd691906115cf565b50604080516101408101825260018401546001600160a01b03908116825284541660208201528082018590526004840154606082015260058401546080820152600684015460a0820152600784015460c0820152600a84015460e0820152600884015460ff80821615156101008085019190915290910416151561012082015290517f655fb0901a21c81da77d95f38adf6f27554fde35980c17b01bbedaceb7ada05091610e839161167c565b60405180910390a1505050565b60405163d313eb1360e01b815233600482015242602482015260009081907305198c2783d3497361ca936a70e5643287dfd0b89063d313eb1390604401602060405180830381865af4158015610eea573d6000803e3d6000fd5b505050506040513d601f19601f82011682018060405250810190610f0e9190611717565b6001600160a01b0380861660009081526001602052604081205492935091610f369116610b17565b6001600160a01b0380861660009081526001602052604081205492935091610f5e9116610b17565b60405163563cc33f60e01b815260048101849052602481018b905260448101829052606481018a905290915060009081907305198c2783d3497361ca936a70e5643287dfd0b89063563cc33f906084016040805180830381865af4158015610fca573d6000803e3d6000fd5b505050506040513d601f19601f82011682018060405250810190610fee9190611730565b915091506040518060a00160405280604051806040016040528060006001600160a01b03168152602001336001600160a01b031681525081526020016040518060c001604052808b6001600160a01b031681526020018a6001600160a01b031681526020018e81526020018481526020018581526020018d8152508152602001604051806040016040528060001515815260200160001515815250815260200160405180606001604052808c815260200160008152602001600081525081526020018681525060008087815260200190815260200160002060008201518160000160008201518160000160006101000a8154816001600160a01b0302191690836001600160a01b0316021790555060208201518160010160006101000a8154816001600160a01b0302191690836001600160a01b03160217905550505060208201518160020160008201518160000160006101000a8154816001600160a01b0302191690836001600160a01b0316021790555060208201518160010160006101000a8154816001600160a01b0302191690836001600160a01b0316021790555060408201518160020155606082015181600301556080820151816004015560a08201518160050155505060408201518160080160008201518160000160006101000a81548160ff02191690831515021790555060208201518160000160016101000a81548160ff02191690831515021790555050506060820151816009016000820151816000015560208201518160010155604082015181600201555050608082015181600c0155905050876001600160a01b03166323b872dd33308e6040518463ffffffff1660e01b8152600401611269939291906115ab565b6020604051808303816000875af1158015611288573d6000803e3d6000fd5b505050506040513d601f19601f820116820180604052508101906112ac91906115cf565b506040805161010081018252338152602081018790528082018d9052606081018390526080810184905260a081018c9052600060c0820181905260e082015290517fa009ca78731a20624c3b520e6936c30170e21469f1561fc8db04afb1f3d36706916113749181516001600160a01b031681526020808301519082015260408083015190820152606080830151908201526080808301519082015260a0828101519082015260c08083015115159082015260e0918201511515918101919091526101000190565b60405180910390a150929998505050505050505050565b6001600160a01b038316158015906113ab57506001600160a01b03821615155b6113e95760405162461bcd60e51b815260206004820152600f60248201526e496e76616c6964204164647265737360881b6044820152606401610366565b6001600160a01b03928316600090815260016020908152604080832080546001600160a01b03191695909616949094179094556002909352912055565b6001600160a01b03811660009081526002602052604081205461144a90600a61183b565b6114549084611847565b90505b92915050565b60006020828403121561146f57600080fd5b5035919050565b80356001600160a01b038116811461148d57600080fd5b919050565b6000602082840312156114a457600080fd5b61145482611476565b600080600080600060a086880312156114c557600080fd5b8535945060208601359350604086013592506114e360608701611476565b91506114f160808701611476565b90509295509295909350565b60008060006060848603121561151257600080fd5b61151b84611476565b925061152960208501611476565b929592945050506040919091013590565b6020808252600a9082015269080853195b9d081bdd5d60b21b604082015260600190565b6020808252600a90820152690103830b4b21037baba160b51b604082015260600190565b634e487b7160e01b600052601160045260246000fd5b8082018082111561145757611457611582565b6001600160a01b039384168152919092166020820152604081019190915260600190565b6000602082840312156115e157600080fd5b815180151581146115f157600080fd5b9392505050565b6020808252600a90820152692430b99024b9b9bab2b960b11b604082015260600190565b805169ffffffffffffffffffff8116811461148d57600080fd5b600080600080600060a0868803121561164e57600080fd5b6116578661161c565b602087015160408801516060890151929750909550935091506114f16080870161161c565b81516001600160a01b03168152610140810160208301516116a860208401826001600160a01b03169052565b5060408301516040830152606083015160608301526080830151608083015260a083015160a083015260c083015160c083015260e083015160e08301526101008301516116fa61010084018215159052565b5061012083015161171061012084018215159052565b5092915050565b60006020828403121561172957600080fd5b5051919050565b6000806040838503121561174357600080fd5b505080516020909101519092909150565b6001815b600184111561178f5780850481111561177357611773611582565b600184161561178157908102905b60019390931c928002611758565b935093915050565b6000826117a657506001611457565b816117b357506000611457565b81600181146117c957600281146117d3576117ef565b6001915050611457565b60ff8411156117e4576117e4611582565b50506001821b611457565b5060208310610133831016604e8410600b8410161715611812575081810a611457565b61181f6000198484611754565b806000190482111561183357611833611582565b029392505050565b60006114548383611797565b60008261186457634e487b7160e01b600052601260045260246000fd5b50049056fea26469706673582212206849616bc3aa67b5d25408ade3207038055edff2809d69ea4eece20f309f276864736f6c634300081a0033","linkReferences":{}},"methodIdentifiers":{"claimCollateralBack(bytes32)":"0c7beed2","getBlockTime()":"87ceff09","getUSDPrice(address)":"8b2f0f4f","lendLoan(bytes32)":"d808c91b","liquidate(bytes32)":"0a71096e","loans(bytes32)":"c4a90815","payLoan(bytes32)":"2c18a642","priceFeeds(address)":"9dcb511a","requestLoan(uint256,uint256,uint256,address,address)":"db6e2a3f","setPriceFeed(address,address,uint256)":"eceb9a9c","tokendecimal(address)":"6b7beba0"},"id":29}