{"abi":[{"type":"function","name":"claimCollateralBack","inputs":[{"name":"_loanId","type":"bytes32","internalType":"bytes32"}],"outputs":[],"stateMutability":"nonpayable"},{"type":"function","name":"getUSDPrice","inputs":[{"name":"_token","type":"address","internalType":"address"}],"outputs":[{"name":"","type":"int256","internalType":"int256"}],"stateMutability":"view"},{"type":"function","name":"lendLoan","inputs":[{"name":"_loanId","type":"bytes32","internalType":"bytes32"}],"outputs":[],"stateMutability":"nonpayable"},{"type":"function","name":"liquidate","inputs":[{"name":"_loanId","type":"bytes32","internalType":"bytes32"}],"outputs":[],"stateMutability":"nonpayable"},{"type":"function","name":"loans","inputs":[{"name":"","type":"bytes32","internalType":"bytes32"}],"outputs":[{"name":"involvers","type":"tuple","internalType":"struct IntTrustLend.Parties","components":[{"name":"lender","type":"address","internalType":"address"},{"name":"borrower","type":"address","internalType":"address"}]},{"name":"amounts","type":"tuple","internalType":"struct IntTrustLend.LoanAmounts","components":[{"name":"collateralToken","type":"address","internalType":"address"},{"name":"borrowedToken","type":"address","internalType":"address"},{"name":"collateralAmount","type":"uint256","internalType":"uint256"},{"name":"borrowedAmount","type":"uint256","internalType":"uint256"},{"name":"interest","type":"uint256","internalType":"uint256"},{"name":"loanPercentage","type":"uint256","internalType":"uint256"}]},{"name":"status","type":"tuple","internalType":"struct IntTrustLend.Status","components":[{"name":"isPaid","type":"bool","internalType":"bool"},{"name":"isLend","type":"bool","internalType":"bool"}]},{"name":"duration","type":"tuple","internalType":"struct IntTrustLend.Time","components":[{"name":"duration","type":"uint256","internalType":"uint256"},{"name":"end","type":"uint256","internalType":"uint256"},{"name":"start","type":"uint256","internalType":"uint256"}]},{"name":"loanId","type":"bytes32","internalType":"bytes32"}],"stateMutability":"view"},{"type":"function","name":"payLoan","inputs":[{"name":"_loanId","type":"bytes32","internalType":"bytes32"}],"outputs":[],"stateMutability":"nonpayable"},{"type":"function","name":"priceFeeds","inputs":[{"name":"token","type":"address","internalType":"address"}],"outputs":[{"name":"priceFeed","type":"address","internalType":"address"}],"stateMutability":"view"},{"type":"function","name":"requestLoan","inputs":[{"name":"_collateralAmount","type":"uint256","internalType":"uint256"},{"name":"percentage","type":"uint256","internalType":"uint256"},{"name":"_duration","type":"uint256","internalType":"uint256"},{"name":"collateral","type":"address","internalType":"address"},{"name":"borrowed","type":"address","internalType":"address"}],"outputs":[{"name":"","type":"bytes32","internalType":"bytes32"}],"stateMutability":"nonpayable"},{"type":"function","name":"setPriceFeed","inputs":[{"name":"token","type":"address","internalType":"address"},{"name":"pricefeed","type":"address","internalType":"address"}],"outputs":[],"stateMutability":"nonpayable"},{"type":"event","name":"Claim","inputs":[{"name":"_borrower","type":"address","indexed":true,"internalType":"address"},{"name":"_loanId","type":"bytes32","indexed":true,"internalType":"bytes32"},{"name":"_collateralAmount","type":"uint256","indexed":false,"internalType":"uint256"}],"anonymous":false},{"type":"event","name":"LendLoan","inputs":[{"name":"_borrower","type":"address","indexed":true,"internalType":"address"},{"name":"_lender","type":"address","indexed":true,"internalType":"address"},{"name":"_loanId","type":"bytes32","indexed":true,"internalType":"bytes32"},{"name":"_collateralAmount","type":"uint256","indexed":false,"internalType":"uint256"},{"name":"_borrowedAmount","type":"uint256","indexed":false,"internalType":"uint256"},{"name":"_interest","type":"uint256","indexed":false,"internalType":"uint256"},{"name":"_percentage","type":"uint256","indexed":false,"internalType":"uint256"},{"name":"_endTime","type":"uint256","indexed":false,"internalType":"uint256"}],"anonymous":false},{"type":"event","name":"Liquidate","inputs":[{"name":"_liquidator","type":"address","indexed":true,"internalType":"address"},{"name":"_lender","type":"address","indexed":true,"internalType":"address"},{"name":"_loanId","type":"bytes32","indexed":true,"internalType":"bytes32"},{"name":"_borrower","type":"address","indexed":false,"internalType":"address"},{"name":"_collateralAmountAcquired","type":"uint256","indexed":false,"internalType":"uint256"},{"name":"_amountWithInterest","type":"uint256","indexed":false,"internalType":"uint256"},{"name":"_percentage","type":"uint256","indexed":false,"internalType":"uint256"}],"anonymous":false},{"type":"event","name":"Repay","inputs":[{"name":"_borrower","type":"address","indexed":true,"internalType":"address"},{"name":"_lender","type":"address","indexed":true,"internalType":"address"},{"name":"_loanId","type":"bytes32","indexed":true,"internalType":"bytes32"},{"name":"_borrowedToken","type":"address","indexed":false,"internalType":"address"},{"name":"_collateralToken","type":"address","indexed":false,"internalType":"address"},{"name":"_collateralAmount","type":"uint256","indexed":false,"internalType":"uint256"},{"name":"_interest","type":"uint256","indexed":false,"internalType":"uint256"}],"anonymous":false},{"type":"event","name":"RequestLoan","inputs":[{"name":"reg","type":"tuple","indexed":false,"internalType":"struct TrustLend.Request","components":[{"name":"_borrower","type":"address","internalType":"address"},{"name":"_loanId","type":"bytes32","internalType":"bytes32"},{"name":"_collateralAmount","type":"uint256","internalType":"uint256"},{"name":"_borrowedAmount","type":"uint256","internalType":"uint256"},{"name":"_interest","type":"uint256","internalType":"uint256"},{"name":"_percentage","type":"uint256","internalType":"uint256"},{"name":"_isPaid","type":"bool","internalType":"bool"},{"name":"_isLend","type":"bool","internalType":"bool"}]}],"anonymous":false}],"bytecode":{"object":"0x6080604052348015600f57600080fd5b506115ed8061001f6000396000f3fe608060405234801561001057600080fd5b50600436106100935760003560e01c80638b2f0f4f116100665780638b2f0f4f146100e65780639dcb511a1461010c578063c4a908151461014d578063d808c91b146102cd578063db6e2a3f146102e057600080fd5b80630a71096e146100985780630c7beed2146100ad5780632c18a642146100c057806376e11286146100d3575b600080fd5b6100ab6100a636600461134b565b6102f3565b005b6100ab6100bb36600461134b565b610648565b6100ab6100ce36600461134b565b61082e565b6100ab6100e1366004611380565b610a76565b6100f96100f43660046113b3565b610b02565b6040519081526020015b60405180910390f35b61013561011a3660046113b3565b6001602052600090815260409020546001600160a01b031681565b6040516001600160a01b039091168152602001610103565b61022a61015b36600461134b565b600060208181529181526040908190208151808301835281546001600160a01b0390811682526001830154811682860152835160c081018552600284015482168152600384015490911681860152600483015481850152600583015460608083019190915260068401546080830152600784015460a083015284518086018652600885015460ff80821615158352610100909104161515818801528551918201865260098501548252600a85015496820196909652600b84015494810194909452600c90920154909391929085565b6040805186516001600160a01b03908116825260209788015181168883015286518116828401528787015116606080830191909152868301516080808401919091529087015160a0808401919091529087015160c08301529095015160e08601528351151561010086015292850151151561012085015281516101408501529381015161016084015201516101808201526101a08101919091526101c001610103565b6100ab6102db36600461134b565b610b73565b6100f96102ee3660046113d5565b610e36565b60008181526020819052604090206008810154610100900460ff166103335760405162461bcd60e51b815260040161032a90611425565b60405180910390fd5b600881015460ff16156103585760405162461bcd60e51b815260040161032a90611449565b600a810154421161039a5760405162461bcd60e51b815260206004820152600c60248201526b5374696c6c2041637469766560a01b604482015260640161032a565b80546001600160a01b03166103dd5760405162461bcd60e51b815260206004820152600960248201526827379024b9b9bab2b960b91b604482015260640161032a565b60006103ef8260020160030154611331565b905060006104038360020160040154611331565b905060006104178460020160020154611331565b905060038401546001600160a01b03166323b872dd3330610438868861146d565b6040518463ffffffff1660e01b81526004016104569392919061148e565b6020604051808303816000875af1158015610475573d6000803e3d6000fd5b505050506040513d601f19601f8201168201806040525081019061049991906114b2565b50600384015484546001600160a01b039182169163a9059cbb91166104be858761146d565b6040516001600160e01b031960e085901b1681526001600160a01b03909216600483015260248201526044016020604051808303816000875af1158015610509573d6000803e3d6000fd5b505050506040513d601f19601f8201168201806040525081019061052d91906114b2565b50600384015460405163a9059cbb60e01b8152336004820152602481018390526001600160a01b039091169063a9059cbb906044016020604051808303816000875af1158015610581573d6000803e3d6000fd5b505050506040513d601f19601f820116820180604052508101906105a591906114b2565b5060088401805460ff1916600190811790915584549085015460048601546006870154600588015489946001600160a01b039081169433947f1ba40d1f133a09e81480a7aed4e43e0decad15eeca0a3b801e8caeee4f4c7de694919092169261060e919061146d565b60078b0154604080516001600160a01b03909516855260208501939093529183015260608201526080015b60405180910390a45050505050565b60008181526020819052604090206008810154610100900460ff1661067f5760405162461bcd60e51b815260040161032a90611425565b600881015460ff16156106a45760405162461bcd60e51b815260040161032a90611449565b600a810154156106e55760405162461bcd60e51b815260206004820152600c60248201526b5374696c6c2041637469766560a01b604482015260640161032a565b80546001600160a01b03161561070d5760405162461bcd60e51b815260040161032a906114d4565b60018101546001600160a01b031633146107395760405162461bcd60e51b815260040161032a906114d4565b600061074b8260020160020154611331565b600283015460405163a9059cbb60e01b8152336004820152602481018390529192506001600160a01b03169063a9059cbb906044016020604051808303816000875af115801561079f573d6000803e3d6000fd5b505050506040513d601f19601f820116820180604052508101906107c391906114b2565b5060006004830181905560088301805460ff1916600190811790915583015460405185926001600160a01b03909216917f33e1e4350f7b57099d5489c172fc55e9e32d4d3906a6e36710fae5ed9f5eef0f9161082191815260200190565b60405180910390a3505050565b60008181526020819052604090206008810154610100900460ff166108655760405162461bcd60e51b815260040161032a90611425565b600881015460ff161561088a5760405162461bcd60e51b815260040161032a90611449565b60018101546001600160a01b031633146108b65760405162461bcd60e51b815260040161032a906114d4565b60006108c88260020160030154611331565b905060006108dc8360020160040154611331565b905060006108f08460020160020154611331565b9050600384015484546001600160a01b03918216916323b872dd91339116610918868861146d565b6040518463ffffffff1660e01b81526004016109369392919061148e565b6020604051808303816000875af1158015610955573d6000803e3d6000fd5b505050506040513d601f19601f8201168201806040525081019061097991906114b2565b50600284015460405163a9059cbb60e01b8152336004820152602481018390526001600160a01b039091169063a9059cbb906044016020604051808303816000875af11580156109cd573d6000803e3d6000fd5b505050506040513d601f19601f820116820180604052508101906109f191906114b2565b5060088401805460ff191660019081179091558454908501546003860154600287015460048801546006890154604080516001600160a01b03958616815293851660208501528301919091526060820152889382169291909116907f1470e941fa4bbaafc2a2f026e53566e8e6dd113461d922a1f0432dd6da71773c90608001610639565b6001600160a01b03821615801590610a9657506001600160a01b03811615155b610ad45760405162461bcd60e51b815260206004820152600f60248201526e496e76616c6964204164647265737360881b604482015260640161032a565b6001600160a01b03918216600090815260016020526040902080546001600160a01b03191691909216179055565b600080826001600160a01b031663feaf968c6040518163ffffffff1660e01b815260040160a060405180830381865afa158015610b43573d6000803e3d6000fd5b505050506040513d601f19601f82011682018060405250810190610b679190611512565b50919695505050505050565b60008181526020819052604090206008810154610100900460ff1615610bce5760405162461bcd60e51b815260206004820152601060248201526f105b1c9958591e481b195b9d081bdd5d60821b604482015260640161032a565b600881015460ff1615610c165760405162461bcd60e51b815260206004820152601060248201526f105b1c9958591e481c185a59081bdd5d60821b604482015260640161032a565b80546001600160a01b031615610c6e5760405162461bcd60e51b815260206004820152601960248201527f4c6f616e20616c7265616479206861732061206c656e64657200000000000000604482015260640161032a565b80546001600160a01b0319163317815542600b82018190556009820154610c949161146d565b600a82015560088101805461ff0019166101001790556005810154600090610cbb90611331565b60038301546040516323b872dd60e01b81529192506001600160a01b0316906323b872dd90610cf29033903090869060040161148e565b6020604051808303816000875af1158015610d11573d6000803e3d6000fd5b505050506040513d601f19601f82011682018060405250810190610d3591906114b2565b506003820154600183015460405163a9059cbb60e01b81526001600160a01b0391821660048201526024810184905291169063a9059cbb906044016020604051808303816000875af1158015610d8f573d6000803e3d6000fd5b505050506040513d601f19601f82011682018060405250810190610db391906114b2565b50815460018301546004840154600585015460068601546007870154600a880154604080519586526020860194909452928401919091526060830152608082015285926001600160a01b039081169216907f55920698c50be87f3f2d7d717e72b7b198af29769c14023ab5d44aff9fca8daa9060a00160405180910390a4505050565b60405163d313eb1360e01b815233600482015242602482015260009081907305198c2783d3497361ca936a70e5643287dfd0b89063d313eb1390604401602060405180830381865af4158015610e90573d6000803e3d6000fd5b505050506040513d601f19601f82011682018060405250810190610eb49190611558565b6001600160a01b0380861660009081526001602052604081205492935091610edc9116610b02565b6001600160a01b0380861660009081526001602052604081205492935091610f049116610b02565b60405163563cc33f60e01b815260048101849052602481018b905260448101829052606481018a905290915060009081907305198c2783d3497361ca936a70e5643287dfd0b89063563cc33f906084016040805180830381865af4158015610f70573d6000803e3d6000fd5b505050506040513d601f19601f82011682018060405250810190610f949190611571565b915091506040518060a00160405280604051806040016040528060006001600160a01b03168152602001336001600160a01b031681525081526020016040518060c001604052808b6001600160a01b031681526020018a6001600160a01b031681526020018e81526020018481526020018581526020018d8152508152602001604051806040016040528060001515815260200160001515815250815260200160405180606001604052808c815260200160008152602001600081525081526020018681525060008087815260200190815260200160002060008201518160000160008201518160000160006101000a8154816001600160a01b0302191690836001600160a01b0316021790555060208201518160010160006101000a8154816001600160a01b0302191690836001600160a01b03160217905550505060208201518160020160008201518160000160006101000a8154816001600160a01b0302191690836001600160a01b0316021790555060208201518160010160006101000a8154816001600160a01b0302191690836001600160a01b0316021790555060408201518160020155606082015181600301556080820151816004015560a08201518160050155505060408201518160080160008201518160000160006101000a81548160ff02191690831515021790555060208201518160000160016101000a81548160ff02191690831515021790555050506060820151816009016000820151816000015560208201518160010155604082015181600201555050608082015181600c0155905050876001600160a01b03166323b872dd33308e6040518463ffffffff1660e01b815260040161120f9392919061148e565b6020604051808303816000875af115801561122e573d6000803e3d6000fd5b505050506040513d601f19601f8201168201806040525081019061125291906114b2565b506040805161010081018252338152602081018790528082018d9052606081018390526080810184905260a081018c9052600060c0820181905260e082015290517fa009ca78731a20624c3b520e6936c30170e21469f1561fc8db04afb1f3d367069161131a9181516001600160a01b031681526020808301519082015260408083015190820152606080830151908201526080808301519082015260a0828101519082015260c08083015115159082015260e0918201511515918101919091526101000190565b60405180910390a150929998505050505050505050565b6000611345670de0b6b3a764000083611595565b92915050565b60006020828403121561135d57600080fd5b5035919050565b80356001600160a01b038116811461137b57600080fd5b919050565b6000806040838503121561139357600080fd5b61139c83611364565b91506113aa60208401611364565b90509250929050565b6000602082840312156113c557600080fd5b6113ce82611364565b9392505050565b600080600080600060a086880312156113ed57600080fd5b85359450602086013593506040860135925061140b60608701611364565b915061141960808701611364565b90509295509295909350565b6020808252600a9082015269080853195b9d081bdd5d60b21b604082015260600190565b6020808252600a90820152690103830b4b21037baba160b51b604082015260600190565b8082018082111561134557634e487b7160e01b600052601160045260246000fd5b6001600160a01b039384168152919092166020820152604081019190915260600190565b6000602082840312156114c457600080fd5b815180151581146113ce57600080fd5b6020808252600a90820152692430b99024b9b9bab2b960b11b604082015260600190565b805169ffffffffffffffffffff8116811461137b57600080fd5b600080600080600060a0868803121561152a57600080fd5b611533866114f8565b60208701516040880151606089015192975090955093509150611419608087016114f8565b60006020828403121561156a57600080fd5b5051919050565b6000806040838503121561158457600080fd5b505080516020909101519092909150565b6000826115b257634e487b7160e01b600052601260045260246000fd5b50049056fea2646970667358221220f36d364905dbd144c57d5133078b4d8c5ef8beb4707afdaae035c691645471e364736f6c634300081a0033","linkReferences":{}},"methodIdentifiers":{"claimCollateralBack(bytes32)":"0c7beed2","getUSDPrice(address)":"8b2f0f4f","lendLoan(bytes32)":"d808c91b","liquidate(bytes32)":"0a71096e","loans(bytes32)":"c4a90815","payLoan(bytes32)":"2c18a642","priceFeeds(address)":"9dcb511a","requestLoan(uint256,uint256,uint256,address,address)":"db6e2a3f","setPriceFeed(address,address)":"76e11286"},"id":29}