{"abi":[{"type":"function","name":"claimCollateralBack","inputs":[{"name":"_loanId","type":"bytes32","internalType":"bytes32"}],"outputs":[],"stateMutability":"nonpayable"},{"type":"function","name":"getUSDPrice","inputs":[{"name":"_token","type":"address","internalType":"address"}],"outputs":[{"name":"","type":"int256","internalType":"int256"}],"stateMutability":"view"},{"type":"function","name":"lendLoan","inputs":[{"name":"_loanId","type":"bytes32","internalType":"bytes32"}],"outputs":[],"stateMutability":"nonpayable"},{"type":"function","name":"liquidate","inputs":[{"name":"_loanId","type":"bytes32","internalType":"bytes32"}],"outputs":[],"stateMutability":"nonpayable"},{"type":"function","name":"loans","inputs":[{"name":"","type":"bytes32","internalType":"bytes32"}],"outputs":[{"name":"involvers","type":"tuple","internalType":"struct IntTrustLend.Parties","components":[{"name":"lender","type":"address","internalType":"address"},{"name":"borrower","type":"address","internalType":"address"}]},{"name":"amounts","type":"tuple","internalType":"struct IntTrustLend.LoanAmounts","components":[{"name":"collateralToken","type":"address","internalType":"address"},{"name":"borrowedToken","type":"address","internalType":"address"},{"name":"collateralAmount","type":"uint256","internalType":"uint256"},{"name":"borrowedAmount","type":"uint256","internalType":"uint256"},{"name":"interest","type":"uint256","internalType":"uint256"},{"name":"loanPercentage","type":"uint256","internalType":"uint256"}]},{"name":"status","type":"tuple","internalType":"struct IntTrustLend.Status","components":[{"name":"isPaid","type":"bool","internalType":"bool"},{"name":"isLend","type":"bool","internalType":"bool"}]},{"name":"duration","type":"tuple","internalType":"struct IntTrustLend.Time","components":[{"name":"duration","type":"uint256","internalType":"uint256"},{"name":"end","type":"uint256","internalType":"uint256"},{"name":"start","type":"uint256","internalType":"uint256"}]},{"name":"loanId","type":"bytes32","internalType":"bytes32"}],"stateMutability":"view"},{"type":"function","name":"payLoan","inputs":[{"name":"_loanId","type":"bytes32","internalType":"bytes32"}],"outputs":[],"stateMutability":"nonpayable"},{"type":"function","name":"priceFeeds","inputs":[{"name":"token","type":"address","internalType":"address"}],"outputs":[{"name":"priceFeed","type":"address","internalType":"address"}],"stateMutability":"view"},{"type":"function","name":"requestLoan","inputs":[{"name":"_collateralAmount","type":"uint256","internalType":"uint256"},{"name":"percentage","type":"uint256","internalType":"uint256"},{"name":"_duration","type":"uint256","internalType":"uint256"},{"name":"collateral","type":"address","internalType":"address"},{"name":"borrowed","type":"address","internalType":"address"}],"outputs":[{"name":"","type":"bytes32","internalType":"bytes32"}],"stateMutability":"nonpayable"},{"type":"function","name":"setPriceFeed","inputs":[{"name":"token","type":"address","internalType":"address"},{"name":"pricefeed","type":"address","internalType":"address"}],"outputs":[],"stateMutability":"nonpayable"},{"type":"event","name":"Claim","inputs":[{"name":"_borrower","type":"address","indexed":true,"internalType":"address"},{"name":"_loanId","type":"bytes32","indexed":true,"internalType":"bytes32"},{"name":"_collateralAmount","type":"uint256","indexed":false,"internalType":"uint256"}],"anonymous":false},{"type":"event","name":"LendLoan","inputs":[{"name":"_borrower","type":"address","indexed":true,"internalType":"address"},{"name":"_lender","type":"address","indexed":true,"internalType":"address"},{"name":"_loanId","type":"bytes32","indexed":true,"internalType":"bytes32"},{"name":"_collateralAmount","type":"uint256","indexed":false,"internalType":"uint256"},{"name":"_borrowedAmount","type":"uint256","indexed":false,"internalType":"uint256"},{"name":"_interest","type":"uint256","indexed":false,"internalType":"uint256"},{"name":"_percentage","type":"uint256","indexed":false,"internalType":"uint256"},{"name":"_endTime","type":"uint256","indexed":false,"internalType":"uint256"}],"anonymous":false},{"type":"event","name":"Liquidate","inputs":[{"name":"_liquidator","type":"address","indexed":true,"internalType":"address"},{"name":"_lender","type":"address","indexed":true,"internalType":"address"},{"name":"_loanId","type":"bytes32","indexed":true,"internalType":"bytes32"},{"name":"_borrower","type":"address","indexed":false,"internalType":"address"},{"name":"_collateralAmountAcquired","type":"uint256","indexed":false,"internalType":"uint256"},{"name":"_amountWithInterest","type":"uint256","indexed":false,"internalType":"uint256"},{"name":"_percentage","type":"uint256","indexed":false,"internalType":"uint256"}],"anonymous":false},{"type":"event","name":"Repay","inputs":[{"name":"_borrower","type":"address","indexed":true,"internalType":"address"},{"name":"_lender","type":"address","indexed":true,"internalType":"address"},{"name":"_loanId","type":"bytes32","indexed":true,"internalType":"bytes32"},{"name":"_borrowedToken","type":"address","indexed":false,"internalType":"address"},{"name":"_collateralToken","type":"address","indexed":false,"internalType":"address"},{"name":"_collateralAmount","type":"uint256","indexed":false,"internalType":"uint256"},{"name":"_interest","type":"uint256","indexed":false,"internalType":"uint256"}],"anonymous":false},{"type":"event","name":"RequestLoan","inputs":[{"name":"reg","type":"tuple","indexed":false,"internalType":"struct TrustLend.Request","components":[{"name":"_borrower","type":"address","internalType":"address"},{"name":"_loanId","type":"bytes32","internalType":"bytes32"},{"name":"_collateralAmount","type":"uint256","internalType":"uint256"},{"name":"_borrowedAmount","type":"uint256","internalType":"uint256"},{"name":"_interest","type":"uint256","internalType":"uint256"},{"name":"_percentage","type":"uint256","internalType":"uint256"}]}],"anonymous":false}],"bytecode":{"object":"0x6080604052348015600f57600080fd5b5061147a8061001f6000396000f3fe608060405234801561001057600080fd5b50600436106100935760003560e01c80638b2f0f4f116100665780638b2f0f4f146100e65780639dcb511a1461010c578063c4a908151461014d578063d808c91b146102cd578063db6e2a3f146102e057600080fd5b80630a71096e146100985780630c7beed2146100ad5780632c18a642146100c057806376e11286146100d3575b600080fd5b6100ab6100a63660046111f4565b6102f3565b005b6100ab6100bb3660046111f4565b610628565b6100ab6100ce3660046111f4565b610800565b6100ab6100e1366004611229565b610a1e565b6100f96100f436600461125c565b610aaa565b6040519081526020015b60405180910390f35b61013561011a36600461125c565b6001602052600090815260409020546001600160a01b031681565b6040516001600160a01b039091168152602001610103565b61022a61015b3660046111f4565b600060208181529181526040908190208151808301835281546001600160a01b0390811682526001830154811682860152835160c081018552600284015482168152600384015490911681860152600483015481850152600583015460608083019190915260068401546080830152600784015460a083015284518086018652600885015460ff80821615158352610100909104161515818801528551918201865260098501548252600a85015496820196909652600b84015494810194909452600c90920154909391929085565b6040805186516001600160a01b03908116825260209788015181168883015286518116828401528787015116606080830191909152868301516080808401919091529087015160a0808401919091529087015160c08301529095015160e08601528351151561010086015292850151151561012085015281516101408501529381015161016084015201516101808201526101a08101919091526101c001610103565b6100ab6102db3660046111f4565b610b1b565b6100f96102ee36600461127e565b610d19565b60008181526020819052604090206008810154610100900460ff166103335760405162461bcd60e51b815260040161032a906112ce565b60405180910390fd5b600881015460ff16156103585760405162461bcd60e51b815260040161032a906112f2565b600a810154421161039a5760405162461bcd60e51b815260206004820152600c60248201526b5374696c6c2041637469766560a01b604482015260640161032a565b80546001600160a01b03166103dd5760405162461bcd60e51b815260206004820152600960248201526827379024b9b9bab2b960b91b604482015260640161032a565b6003810154600682015460058301546001600160a01b03909216916323b872dd913391309161040b91611316565b6040518463ffffffff1660e01b81526004016104299392919061133d565b6020604051808303816000875af1158015610448573d6000803e3d6000fd5b505050506040513d601f19601f8201168201806040525081019061046c9190611361565b5060038101548154600683015460058401546001600160a01b039384169363a9059cbb93169161049b91611316565b6040516001600160e01b031960e085901b1681526001600160a01b03909216600483015260248201526044016020604051808303816000875af11580156104e6573d6000803e3d6000fd5b505050506040513d601f19601f8201168201806040525081019061050a9190611361565b50600381015460048083015460405163a9059cbb60e01b8152339281019290925260248201526001600160a01b039091169063a9059cbb906044016020604051808303816000875af1158015610564573d6000803e3d6000fd5b505050506040513d601f19601f820116820180604052508101906105889190611361565b5060088101805460ff1916600190811790915581549082015460048301546006840154600585015486946001600160a01b039081169433947f1ba40d1f133a09e81480a7aed4e43e0decad15eeca0a3b801e8caeee4f4c7de69491909216926105f19190611316565b6007880154604080516001600160a01b03909516855260208501939093529183015260608201526080015b60405180910390a45050565b60008181526020819052604090206008810154610100900460ff1661065f5760405162461bcd60e51b815260040161032a906112ce565b600881015460ff16156106845760405162461bcd60e51b815260040161032a906112f2565b600a810154156106c55760405162461bcd60e51b815260206004820152600c60248201526b5374696c6c2041637469766560a01b604482015260640161032a565b80546001600160a01b0316156106ed5760405162461bcd60e51b815260040161032a90611383565b60018101546001600160a01b031633146107195760405162461bcd60e51b815260040161032a90611383565b600281015460048083015460405163a9059cbb60e01b8152339281019290925260248201526001600160a01b039091169063a9059cbb906044016020604051808303816000875af1158015610772573d6000803e3d6000fd5b505050506040513d601f19601f820116820180604052508101906107969190611361565b5060006004820181905560088201805460ff1916600190811790915582015460405184926001600160a01b03909216917f33e1e4350f7b57099d5489c172fc55e9e32d4d3906a6e36710fae5ed9f5eef0f916107f491815260200190565b60405180910390a35050565b60008181526020819052604090206008810154610100900460ff166108375760405162461bcd60e51b815260040161032a906112ce565b600881015460ff161561085c5760405162461bcd60e51b815260040161032a906112f2565b60018101546001600160a01b031633146108885760405162461bcd60e51b815260040161032a90611383565b60038101548154600683015460058401546001600160a01b03938416936323b872dd9333939116916108ba9190611316565b6040518463ffffffff1660e01b81526004016108d89392919061133d565b6020604051808303816000875af11580156108f7573d6000803e3d6000fd5b505050506040513d601f19601f8201168201806040525081019061091b9190611361565b50600281015460048083015460405163a9059cbb60e01b8152339281019290925260248201526001600160a01b039091169063a9059cbb906044016020604051808303816000875af1158015610975573d6000803e3d6000fd5b505050506040513d601f19601f820116820180604052508101906109999190611361565b5060088101805460ff191660019081179091558154908201546003830154600284015460048501546006860154604080516001600160a01b03958616815293851660208501528301919091526060820152859382169291909116907f1470e941fa4bbaafc2a2f026e53566e8e6dd113461d922a1f0432dd6da71773c9060800161061c565b6001600160a01b03821615801590610a3e57506001600160a01b03811615155b610a7c5760405162461bcd60e51b815260206004820152600f60248201526e496e76616c6964204164647265737360881b604482015260640161032a565b6001600160a01b03918216600090815260016020526040902080546001600160a01b03191691909216179055565b600080826001600160a01b031663feaf968c6040518163ffffffff1660e01b815260040160a060405180830381865afa158015610aeb573d6000803e3d6000fd5b505050506040513d601f19601f82011682018060405250810190610b0f91906113c1565b50919695505050505050565b60008181526020819052604090206008810154610100900460ff1615610b6f5760405162461bcd60e51b81526020600482015260096024820152680813195b9d081bdd5d60ba1b604482015260640161032a565b600881015460ff1615610b945760405162461bcd60e51b815260040161032a906112f2565b80546001600160a01b031615610bdd5760405162461bcd60e51b815260206004820152600e60248201526d3430bb329030b71024b9b9bab2b960911b604482015260640161032a565b80546001600160a01b0319163317815542600b82018190556009820154610c0391611316565b600a82015560088101805461ff0019166101001790556003810154600182015460058301546040516323b872dd60e01b81526001600160a01b03938416936323b872dd93610c5b93339391909216919060040161133d565b6020604051808303816000875af1158015610c7a573d6000803e3d6000fd5b505050506040513d601f19601f82011682018060405250810190610c9e9190611361565b50805460018201546004830154600584015460068501546007860154600a870154604080519586526020860194909452928401919091526060830152608082015284926001600160a01b039081169216907f55920698c50be87f3f2d7d717e72b7b198af29769c14023ab5d44aff9fca8daa9060a00161061c565b60405163d313eb1360e01b815233600482015242602482015260009081907305198c2783d3497361ca936a70e5643287dfd0b89063d313eb1390604401602060405180830381865af4158015610d73573d6000803e3d6000fd5b505050506040513d601f19601f82011682018060405250810190610d979190611407565b6001600160a01b0380861660009081526001602052604081205492935091610dbf9116610aaa565b6001600160a01b0380861660009081526001602052604081205492935091610de79116610aaa565b60405163563cc33f60e01b815260048101849052602481018b905260448101829052606481018a905290915060009081907305198c2783d3497361ca936a70e5643287dfd0b89063563cc33f906084016040805180830381865af4158015610e53573d6000803e3d6000fd5b505050506040513d601f19601f82011682018060405250810190610e779190611420565b915091506040518060a00160405280604051806040016040528060006001600160a01b03168152602001336001600160a01b031681525081526020016040518060c001604052808b6001600160a01b031681526020018a6001600160a01b031681526020018e81526020018481526020018581526020018d8152508152602001604051806040016040528060001515815260200160001515815250815260200160405180606001604052808c815260200160008152602001600081525081526020018681525060008087815260200190815260200160002060008201518160000160008201518160000160006101000a8154816001600160a01b0302191690836001600160a01b0316021790555060208201518160010160006101000a8154816001600160a01b0302191690836001600160a01b03160217905550505060208201518160020160008201518160000160006101000a8154816001600160a01b0302191690836001600160a01b0316021790555060208201518160010160006101000a8154816001600160a01b0302191690836001600160a01b0316021790555060408201518160020155606082015181600301556080820151816004015560a08201518160050155505060408201518160080160008201518160000160006101000a81548160ff02191690831515021790555060208201518160000160016101000a81548160ff02191690831515021790555050506060820151816009016000820151816000015560208201518160010155604082015181600201555050608082015181600c0155905050876001600160a01b03166323b872dd33308e6040518463ffffffff1660e01b81526004016110f29392919061133d565b6020604051808303816000875af1158015611111573d6000803e3d6000fd5b505050506040513d601f19601f820116820180604052508101906111359190611361565b507fbc43dab357bf1d3a1850f80cab24b1b9dd0ce03611f0f4226954bcef0b5001466040518060c00160405280336001600160a01b031681526020018781526020018d81526020018381526020018481526020018c8152506040516111dd919081516001600160a01b031681526020808301519082015260408083015190820152606080830151908201526080808301519082015260a0918201519181019190915260c00190565b60405180910390a150929998505050505050505050565b60006020828403121561120657600080fd5b5035919050565b80356001600160a01b038116811461122457600080fd5b919050565b6000806040838503121561123c57600080fd5b6112458361120d565b91506112536020840161120d565b90509250929050565b60006020828403121561126e57600080fd5b6112778261120d565b9392505050565b600080600080600060a0868803121561129657600080fd5b8535945060208601359350604086013592506112b46060870161120d565b91506112c26080870161120d565b90509295509295909350565b6020808252600a9082015269080853195b9d081bdd5d60b21b604082015260600190565b6020808252600a90820152690103830b4b21037baba160b51b604082015260600190565b8082018082111561133757634e487b7160e01b600052601160045260246000fd5b92915050565b6001600160a01b039384168152919092166020820152604081019190915260600190565b60006020828403121561137357600080fd5b8151801515811461127757600080fd5b6020808252600a90820152692430b99024b9b9bab2b960b11b604082015260600190565b805169ffffffffffffffffffff8116811461122457600080fd5b600080600080600060a086880312156113d957600080fd5b6113e2866113a7565b602087015160408801516060890151929750909550935091506112c2608087016113a7565b60006020828403121561141957600080fd5b5051919050565b6000806040838503121561143357600080fd5b50508051602090910151909290915056fea26469706673582212206165a690e78302a496ad77b05a9dcbcbcc077c25363f7ee6335c45d71c7c283f64736f6c634300081a0033","linkReferences":{}},"methodIdentifiers":{"claimCollateralBack(bytes32)":"0c7beed2","getUSDPrice(address)":"8b2f0f4f","lendLoan(bytes32)":"d808c91b","liquidate(bytes32)":"0a71096e","loans(bytes32)":"c4a90815","payLoan(bytes32)":"2c18a642","priceFeeds(address)":"9dcb511a","requestLoan(uint256,uint256,uint256,address,address)":"db6e2a3f","setPriceFeed(address,address)":"76e11286"},"id":35}